S31500000400FFFFFFFFFFFFFFFFFFFFFFFFFEFDFFFFF9
S315000080004816002069850000718500007385000010
S315000080107585000077850000798500000000000066
S315000080200000000000000000000000007D84000049
S315000080307D850000000000000585000055850000D4
S31500008040838500008385000083850000838500000A
S3150000805083850000838500008385000083850000FA
S3150000806083850000838500008385000083850000EA
S3150000807083850000838500008385000083850000DA
S3150000808083850000838500005992000083850000E7
S3150000809083850000838500008385000083850000BA
S315000080A083850000838500008385000083850000AA
S315000080B0838500008385000083850000838500009A
S315000080C08385000083850000838500007B8C00008B
S315000080D0838500008385000083850000838500007A
S315000080E0838500005DA6000083850000838500006F
S315000080F0838500008385000083850000838500005A
S315000081008385000083850000838500008385000049
S315000081108385000083850000838500008385000039
S315000081208385000083850000838500008385000029
S31500008400DFF80CD007F004FA0048004715AA000070
S315000084104816002080F309887047EFF309807047FB
S31500008420684680F3098804480078C00714BF022014
S31500008430032080F31488704784090100DFF818C010
S31500008440EFF305831B0618BF6047EFF31483DB07C2
S3150000845008BF604700DF70477F000100DFF818C0E3
S31500008460EFF305831B0618BF6047EFF31483DB07A2
S3150000847008BF604700DF704789020100EFF30980FB
S31500008480816911F8021C39BB90E80F10E047EFF341
S31500008490098C194B93E80600914218D059B10CB4D7
S315000084A04FF0010381F821302CE9F00FC1F824C008
S315000084B000F077F90CBC1A60D2F824C0BCE8F00FC3
S315000084C092F821308CF309881BB192F82000CCF881
S315000084D000006FF0020E704710B5084A126891420C
S315000084E009D8074C54F8214090E80F10A047EFF345
S315000084F0098C8CE80F0010BD1CE1FF1F90F80000EE
S3150000850090F8000007F0B0FF114B93E80600914287
S315000085101BD00CB44FF0000381F82130EFF3098C27
S315000085202CE9F00FC1F824C000F03BF90CBC1A602E
S31500008530D2F824C0BCE8F00F8CF3098892F82130F9
S315000085401BB192F82030CCF800306FF0020E704765
S315000085501CE1FF1F08F078F9D6E7000007F08EFD52
S3150000856008F072F9D0E70000064880470648004741
S31500008570FEE7FEE7FEE7FEE7FEE7FEE7FEE7FEE7CD
S31500008580FEE7FEE78D850000018400004CF22050D6
S315000085907849C8814DF62810C8814FF4E9700880E3
S315000085A04FF488107449486400207449087074496F
S315000085B00873242048709A2008700846C07800F096
S315000085C01F00C870032008710020487100BF6C4866
S315000085D0807910F0020FFAD000BF6948807900F068
S315000085E00C000828F9D1032065490871402048711C
S315000085F000BF6348807910F0200FFAD000BF6048B2
S31500008600807910F0400FFAD01A205D49087000BF3B
S315000086105B48807900F00C000C28F9D100BF58485F
S31500008620807910F0400FFAD04FF4004055490860A9
S315000086307047534A127812F0C00F66D1504A5279E9
S3150000864012F0400F51D14E4A127812F0040F18D191
S315000086504B4A127B12F0010F01D14B4801E04FF457
S315000086600040474A1278C2F3C20301229A40D1B2AF
S31500008670B0FBF1F0424A527812F0300F03D04009B5
S3150000868001E04FF400403E4AD27802F0E00212F0D8
S315000086901F0F28D15211082A25D2DFE802F004085C
S315000086A00C1014181C2000EB8002D0011CE000EB1B
S315000086B08002100218E0C0EB0012D00114E000EBBB
S315000086C08002500210E04FF4377250430CE04FF432
S315000086D0B762504308E040F69502504304E040F686
S315000086E07132504300E000BF38E0254A127902F0AB
S315000086F01F02511C244AB2FBF1F0214A527902F0C2
S315000087001F0202F11801484328E01D4A127802F0C0
S31500008710C002402A11D11A4A527812F0010F02D132
S315000087204FF400401AE0164A127AC2F342030122BD
S315000087309A40164BB3FBF2F010E0114A127802F0A1
S31500008740C002802A09D10E4A127B12F0010F01D114
S315000087500D4803E04FF4004000E07047064A526CB3
S31500008760012303EB1272B0FBF2F2094B1A6000BF51
S31500008770F3E700000020054000800440005006405A
S315000087800040064008ED00E000127A0000093D00B6
S315000087900000002000BFFEE7704700BFFEE77047FD
S315000087A070477047232000F01F02012191404209C3
S315000087B04FF0E02303EB8202C2F8001100BF7047BE
S315000087C00820FC490870FC48406840F4A020FA499B
S315000087D048600846806C20F00F008864002088649A
S315000087E00846406B40F48020486301DFF348007878
S315000087F040F08000F24981F80C0100BFEF48007894
S3150000880010F0800FFAD1EF48000AEF490870ED48E2
S315000088104FEA1040EA4981F8B000EA484FEA106092
S31500008820EA4908704FF0FF00E54981F88000E84802
S31500008830006808B1042000E0002040F01900E44977
S31500008840096809B1022100E000210843E1490870E6
S315000088504FF04000DA4981F80001084690F80C0113
S3150000886040F0400081F80C01704758B1DA490978A8
S3150000887041F00101D24A82F894104FF01001D74A14
S3150000888011700DE0D449097821F00101CC4A82F833
S315000088909410114691F8081121F0100182F8081180
S315000088A07047012005E00022C8490C3101F820205C
S315000088B0401C1028F7D30821C24A5180C84951608C
S315000088C0C821117000211172C54980315161002201
S315000088D0BC49CA610D21C34A11704FF05531C24AD5
S315000088E01160B74991F8941041F00201BA4A11702B
S315000088F04FF0FF01BD4A1170BD4A117002F104022A
S3150000890011704FF00001BB4A11707047B1480078F2
S3150000891040F02000AA4981F884007047AD480078ED
S3150000892020F02000A64981F8840070474CF25030B0
S31500008930B149097811F0020F13D0A749097841F01F
S3150000894004019F4A82F8941000E000BF0100A0F1E4
S315000089500100FAD1A049097821F00401984A82F869
S3150000896094107047704719B900F07F02A14B1A7036
S315000089707047704710F0800F20D000F00F000121E3
S3150000898001EB40029140984A12681143964A1160E1
S31500008990022101EB8001924A02EB8112022101EBD6
S315000089A08001884B03EBC1014A600022022101EBE2
S315000089B08001491C03EBC1014A6034E042000121F9
S315000089C09140894A12688A4387490A6079490A5C54
S315000089D000F00F01002303EB81017A4B03EBC10189
S315000089E04A8000F00F01002202EB81017C4A02EB73
S315000089F0811200F00F01002303EB8101714B03EBA1
S31500008A00C1014A60882200F00F01002303EB8101B7
S31500008A106C4B03F83120002200F00F0102EB8101BC
S31500008A20491C03F83120704770B50446A578A6881E
S31500008A30A07810F0800F01D15E494E552846FFF709
S31500008A4099FF70BD704710F0800F0AD000F00F003C
S31500008A50644911F8201041F00502624901F820200E
S31500008A6007E0604911F8201041F009025D4901F85C
S31500008A702020704710F0800F0AD000F00F005949EF
S31500008A8011F8201021F00502564901F8202007E0D0
S31500008A90544911F8201021F00902524901F820200A
S31500008AA0704700F00F004F4911F8201041F0020204
S31500008AB04C4901F82020704710B50446494804F097
S31500008AC00F0110F8210020F00201464804F00F02C1
S31500008AD000F822102046FFF74DFF10BD7047F0B595
S31500008AE003460C46002503F00F06002707EB860118
S31500008AF0344E06EBC10670883BB9324E16F831602B
S31500008B00C6F383060D2E00D10125002205E0344E62
S31500008B1006EB8116B65CA654521C8242F7D3254E4C
S31500008B20F65C284F07EBC1077E804F082E4E36684D
S31500008B30FE4006F00106234F17F83170C7F3801781
S31500008B40BE4211D145B1A67936B9274E366826F010
S31500008B500106254F3E6007E04F080126BE40224F22
S31500008B603F687E40204F3E604F081F4E3668FE40ED
S31500008B7016F0010F0BD04826124F07F831603E461B
S31500008B8016F8316046F0800607F831600AE00826DC
S31500008B900C4F07F831603E4616F8316046F0800605
S31500008BA007F831600C4E367826F02006044F87F819
S31500008BB09460F0BD08000020008004400C210740AE
S31500008BC000200740000200209C200740B4200740F8
S31500008BD014E1FF1F84200740942007400821074026
S31500008BE0A0020020C020074004000020802007408B
S31500008BF08820074098200740F0E0FF1F70B5034625
S31500008C000D4603F00F03022000EB8301844E06EBB2
S31500008C10C1067280002405E0285D824E06EB8116AF
S31500008C203055641C9442F7D34E087F480068F040E4
S31500008C3010F0010F04D08820794E06F8310003E0C9
S31500008C40C820774E06F831004E080120B040764E17
S31500008C5036687040744E3060104670BD73480078B8
S31500008C60734991F8A41040F2FF7202EA012140EA2A
S31500008C70010070476F48006870472DE9F0416E4863
S31500008C8000786B4991F8841000EA010515F0010F90
S31500008C900ED0FFF706FE04F0B4FD6848006820B168
S31500008CA066480168042007F0C1F90120624908708E
S31500008CB015F0100F0CD0FFF729FE6048006820B1B0
S31500008CC05E480168102007F0B1F930205A49087053
S31500008CD015F0200F0CD0FFF721FE5848006820B190
S31500008CE056480168202007F0A1F920205249087053
S31500008CF015F0040F0AD05148006820B14F480168AA
S31500008D00402007F093F904204B490870022D13D137
S31500008D104B480078474908604848006820B14748F2
S31500008D200168802007F082F9FF20454908704FF05E
S31500008D3002003F4981F8800015F0080F6DD04148C8
S31500008D4000784FEA10143A4890F89000C0F3C00635
S31500008D503C480078C0F3800754BB710004F00F0054
S31500008D6001EB8000012101FB07002D4911F83000BD
S31500008D70C0F383000D281BD12B48006820F00200A9
S31500008D80294908602648007E20F08000244908769C
S31500008D900846007C20F0800008742B4850F8240018
S31500008DA0C0B3294850F82410022007F03FF931E0FB
S31500008DB0710004F00F0001EB8000012101FB0700A8
S31500008DC0174911F83000C0F38300012809D11E4865
S31500008DD050F8240028B11C4850F82410042007F04D
S31500008DE025F9710004F00F0001EB8000012101FB61
S31500008DF007000B4911F83000C0F38300092809D198
S31500008E00114850F8240028B10F4850F824100820C3
S31500008E1007F00CF9082008490870BDE8F081000049
S31500008E2000020020A002002004000020A02007402D
S31500008E3000200740100000208020074014E1FF1F9B
S31500008E408820074090200740ACF4FF1FF648806B4F
S31500008E5040F40060F44988630846406B40F40060C3
S31500008E6048634FF44070F149C8600861DD20F0495D
S31500008E7008740846C07840F00C00C8707047704708
S31500008E80EB48C07820F00C00E949C8700846C07865
S31500008E9020F06000C870122001218140E54A430994
S31500008EA042F8231000BF70472DE9F04304461F46E1
S31500008EB000250026DE48C07820F00C00DFF870C3DD
S31500008EC08CF803006046C07820F020008CF8030080
S31500008ED00020DFF864C3CCF80000CCF80400DFF80B
S31500008EE05CC3CCF80000CCF80400DFF854C3CCF81F
S31500008EF00000CCF80400082902D0092900D0082176
S31500008F000839012A03D101250126491C04E0022A59
S31500008F1002D101250026491C022902D10021002583
S31500008F200026080140EA45003043DFF804C38CF808
S31500008F3002002001DFF80CC3BCFBF0F3BC4800784C
S31500008F4020F01F00C3F3042C40EA0C00DFF8E0C257
S31500008F508CF800006046407863F307008CF8010047
S31500008F606046C07840F00C008CF803006046C0787C
S31500008F7040F020008CF8030012204FF0010C0CFA90
S31500008F8000FC4FEA50184FF0E02909EB8808C8F8B2
S31500008F9000C100BFBDE8F08310B50246086840284E
S31500008FA001DD402000E00868034616E000BFA34844
S31500008FB04068A24C2468A042F9D0A0484068401CF2
S31500008FC09E4C606020460079401E00F03F049B489E
S31500008FD00830005D40B202F8010B1800A3F101034E
S31500008FE0E4D10868402801DD402010BD0868FCE790
S31500008FF010B502460868402801DD402000E00868F8
S31500009000034616E000BF8E4840688D4C2468A04297
S31500009010F9D08B484068401C894C60602046007936
S31500009020401E00F03F0486480830005D40B202F85A
S31500009030010B1800A3F10103E4D10868402801DD03
S31500009040402010BD0868FCE770B5054655B1DFF84D
S31500009050F8C100DF7D4908607D480068416800204E
S31500009060884710E0DFF8E0C100DF04467748006873
S31500009070201AB0F5967F03D3012001F048FB02E0E9
S31500009080002001F044FB70BD00206B490860486079
S315000090906A49086048606A49086048607047F0B5E8
S315000090A002460B461968084600BF634C6468624D69
S315000090B02D68AC42F9D10DE012F8015B5E4C2678C2
S315000090C02468641C5C4F06F03F063C6007F1080408
S315000090D0A555491E0029EFD15E4C246844B10024F1
S315000090E05C4D2C60524CE47844F04004504DEC70DA
S315000090F0F0BD10B50146514A1278504B1B79D21A71
S3150000910002F03F024D4B1B7903F03F044B4B1B789B
S315000091105B1C03F03F039C4201D1012300E00023C6
S3150000912042EA0300402801DD402200E002461046E4
S31500009130086010BD10B50146414A1278404B1B79B4
S31500009140D21A02F03F023E4B1B7903F03F043C4B20
S315000091501B785B1C03F03F039C4201D1012300E016
S31500009160002342EA0300402801DD402200E00246D7
S315000091701046086010BD7047F8B504460D462078C5
S31500009180802810D101F0F3F80746381D06F0A4FA3E
S31500009190C6B2802028706E703246391DA81C06F0B3
S315000091A077FAB01CF8BD2078812814D16846FFF7FD
S315000091B0C1FF00983E2801DD3E2000E000980090A7
S315000091C081202870009868706946A81CFFF710FF78
S315000091D00098801CE6E7207882280AD1607840B2A1
S315000091E000906946A01CFFF75AFF822028700120D4
S315000091F0D8E72078832813D16078A17840EA012047
S31500009200E17840EA0140217940EA01660123002223
S3150000921008213046FFF748FE832028700120C1E769
S31500009220FF2028700120BDE70080044000B0044004
S3150000923000B0064080E100E090F3FF1FD8F3FF1F67
S3150000924020F4FF1F006CDC028508010008E0FF1F08
S315000092505000002004E0FF1F10B52749097911F0DE
S31500009260400F23D025490978244A1279891A11F02A
S315000092703F0F12D021494968491C204A51601146C6
S315000092800979491E01F03F021C490831895C1A4AD6
S31500009290D17100211A4A116008E00121184A1160B3
S315000092A01549C97821F04001134AD170124909794C
S315000092B011F0200F1ED018E00F49C97948B21149A4
S315000092C00B780968491C0F4C03F03F03216004F139
S315000092D00801C8540C490B780968491C0A4C03F06C
S315000092E03F03216004F10801C8540349897C11F049
S315000092F0400FE1D010BD000000B0064090F3FF1F04
S3150000930004E0FF1FD8F3FF1F20F4FF1F0020704763
S3150000931000207047002070470020704700207047EB
S3150000932000207047002070470020704700207047DB
S31500009330002070474FF6FF74002220462146DFF8D2
S31500009340D4C000DFDFF8D0C000DF4006F4D505F05A
S3150000935026F804F09BF9EFE74FF6FF74002220464B
S315000093602146DFF8B0C000DFDFF8ACC000DFC00781
S31500009370F4D004F0EDFFF1E7002902D0DFF89CC03D
S3150000938000DF7047DFF890C000DF70470022DFF88B
S3150000939084C000DF704710B500F050F800F0C1FE41
S315000093A0BDE8104004F049B82DE9F0411C4C1D4FB2
S315000093B000252560B86938B100231A4603211A48EA
S315000093C0DFF868C000DF2060DFF858E0184E0024A0
S315000093D00EF1200E46F824505EF8240038B1002322
S315000093E01A460221DFF844C000DF46F82400641C58
S315000093F00F2CEFD90F4C2560F869002807D0002301
S315000094001A4602210C48DFF824C000DF2060BDE8C0
S31500009410F08100004902010091010100E90101000B
S3150000942014E1FF1F1C0A010035930000D10801005A
S31500009430ACF4FF1F18E1FF1F5993000000207E497E
S3150000944008707E4908607E49086001207D490870E1
S3150000945000207D4908707D4908607D490860704795
S315000094602DE9F04104460F4615461E46012C02D052
S31500009470032C38D136E026B1012E04D0022E2FD18E
S3150000948000E000BF2CE07248006870490968884215
S3150000949002D16D480078F8B16E486D4A126800EB4B
S315000094A082114022284606F0F3F869480068401CFD
S315000094B06749086008460068052801D10020086051
S315000094C06348006861490968884202D100205E4904
S315000094D008704020BDE8F08101205A49087000BF9D
S315000094E000BF00E000BF00BF0020F3E72DE9F04118
S315000094F00646884614461D46069F022E02D0032EB7
S3150000950038D136E005B935E02078072803D10120A7
S31500009510514908702EE04848007830B14748006845
S3150000952047490968884200D124E04C49434A1268F9
S3150000953001EB82102A46214606F0AAF83F48006849
S31500009540401C3E49086008460068052801D10020F5
S3150000955008603A4800683A490968884202D1012001
S31500009560354908703E4801680120DFF8F8C000DF81
S3150000957000E000BF00BFBDE8F08110B53EE0354A0F
S31500009580324B1B6802EB8311344A2D4B1B6802EBEE
S31500009590831002F00EFE2A480068401C0521B0FB2D
S315000095A0F1F201FB120026490860084600682349CB
S315000095B00968884202D100201F49087021480078B6
S315000095C060B100201F4908702248204A126800EB4B
S315000095D082114022002004F0FBFF0FE01B480068C8
S315000095E0441C052C00D10024184804600068184962
S315000095F00968884202D101201349087010480068A2
S315000096000E4909688842BAD10B4800780028B6D1BD
S3150000961010BDDFF854C000DF114908600BE00022DE
S315000096204FF6FF710120DFF844C000DFFFF7A5FF0A
S31500009630002001F079F8F2E714000020180000205D
S315000096401C00002020000020210000202400002013
S3150000965028000020E20A0020CDE0FF1FA20900201A
S315000096602C000020E9010100650901004902010002
S315000096700021FE4A1160FE4A1160FE4A116090B157
S31500009680FD4A1160FD49097809B1072100E008216A
S31500009690FB4A11600021FB4A1170FB4A1170FB4A1C
S315000096A01170FB4A11600021FA4A1160FA4A1160F2
S315000096B0FA4A1170FA4A1170FA4A1170FA4A117090
S315000096C0FA4A1160FA4A1170FA49FB4A11600121FF
S315000096D0FA4A1170704710B50446E8480470012034
S315000096E0FFF7C6FFF64801684FF4804006F09EFC7F
S315000096F001F02BF805F07EFF10BD002400260027A0
S31500009700A046DFF8C0C300DFED4908604EE0002246
S3150000971064214FF4E040DFF8B0C300DF0546022DB8
S3150000972030D1DFF8A8C300DF044614F4805F1AD0F6
S315000097300120DF4908703220DFF894C300DFDC48DF
S31500009740007801280FD1CB48007810F0010F04D023
S31500009750D849D148006801F02FFA0120FFF7BBFF76
S315000097600020D349087014F4005F05D0DFF864C305
S3150000977000DF06464FF0010814F4804F16D04FF074
S31500009780000813E0B8F1000F10D0DFF848C300DF7F
S315000097900746B81B40F6B831884207D94FF0000893
S315000097A00620CD4908700020FFF795FFAFE710B5FA
S315000097B00020C9490870FFF78EFF10BD10B5C748D5
S315000097C0007810B10120B7490870AB48006801283D
S315000097D04FD0C248007800284BD1B2480078012803
S315000097E007D10320BC4908700020FFF774FF012051
S315000097F010BD05F018FF00BF2020B94908604FF0E2
S315000098004000B849C1F884004FF0010088644FF069
S31500009810100088604FF0020048640846406940F036
S31500009820100048610846806840F0100088600846CD
S31500009830806C40F0010088644FF0020048640846DE
S31500009840406D40F00200486540F21310A64948609A
S3150000985000BFA648006841684FF00100884701F044
S315000098604FF918B9FFF7A3FF0120C1E7012082498C
S3150000987008600020BCE72DE9FE4F05460F46082488
S315000098804FF010084FF0000A00264FF0000B0020A2
S31500009890029001900090032F11D17848007801289A
S315000098A002D14FF4947001E04FF4A470044673485B
S315000098B00078012801D1072000E006208046002616
S315000098C00FE0E01C285C10F0100F09D0012082493F
S315000098D008700020FFF7FFFE4FF0FF30BDE8FE8F57
S315000098E0761C4645EDD3032F11D164480078012834
S315000098F002D14FF4947001E04FF4A47004465F481F
S315000099000078012801D1072000E0062080460026C5
S3150000991017E2285D422807D1601C285C492803D13C
S31500009920A01C285C4E282BD0285D622807D1601C1D
S31500009930285C692803D1A01C285C6E2820D0285DED
S31500009940502807D1601C285C412803D1A01C285C44
S31500009950522815D0285D442807D1601C285C4F2862
S3150000996003D1A01C285C57280AD0285D43287BD148
S31500009970601C285C5228FAD1A01C285C4428F6D129
S31500009980285D42280AD1601C285C492806D1A01C03
S31500009990285C4E2802D14FF0000936E0285D622887
S315000099A00AD1601C285C692806D1A01C285C6E2898
S315000099B002D14FF0000928E0285D50280AD1601C2A
S315000099C0285C412806D1A01C285C522802D14FF001
S315000099D001091AE0285D44280AD1601C285C4F283A
S315000099E006D1A01C285C572802D14FF002090CE0D2
S315000099F0285D432809D1601C285C522805D1A01C8B
S31500009A00285C442801D14FF00309E01C285CC0F310
S31500009A10400001902819C07D0006144908602819E5
S31500009A20807D096841EA0040104908602819407D98
S31500009A30096841EA00200D4908602819007D096877
S31500009A4008430A4908602819C07C000211490860C9
S31500009A502819807C096808430E4908600846006892
S31500009A60C01C0860014843E00DE1000080E0FF1FD4
S31500009A7084E0FF1F88E0FF1F90E0FF1F61E0FF1FEB
S31500009A805CE0FF1FA1E0FF1FA2E0FF1FA3E0FF1F96
S31500009A90A4E0FF1FA8E0FF1F94E0FF1F8CE0FF1F5C
S31500009AA08DE0FF1F98E0FF1F99E0FF1F9CE0FF1F5E
S31500009AB0A0E0FF1F280C0020A000002060E0FF1F90
S31500009AC0B0E0FF1F65090100490201009101010094
S31500009AD0890101008508010062E0FF1F68F4FF1F8D
S31500009AE084F00F4000F00F4000A00440500000201A
S31500009AF0006808B9203423E1F9480088C005C00D84
S31500009B0005D1F7480068400AF649086006E0F448BF
S31500009B100068012101EB5020F2490860A4F1080019
S31500009B20285C5F281BD0A4F10800285C2E2816D0DC
S31500009B30019848B1A4F10800285C5F280FD0A4F171
S31500009B400800285C2E280AD0A4F10800285CE52825
S31500009B5014D1B9F1030F11D0B9F1010F0ED0E248BB
S31500009B600068E2490968884201D10120009000207E
S31500009B70DB490860DB4908602034E1E0DC48007816
S31500009B80012811D1DB48007870B9DB480068D74955
S31500009B900968884208D30420D84908700020FFF7D6
S31500009BA09AFD4FF0FF3099E600200090D2480068F9
S31500009BB078B3D1480068CD49096888425CD2CB4861
S31500009BC00068CD490968401ACD490968081AC5498F
S31500009BD00968884250D30020CA490870C8480078EE
S31500009BE010F0010F04D0C849C848006800F0E4FF2F
S31500009BF0BE480068C0490968401A4FEA402BB94878
S31500009C00007810F0010F05D0B64800684008401CE7
S31500009C1003E031E0B348006840080290002622E0E5
S31500009C200BEB8620BA4909684FF480620B69B64986
S31500009C30984720B9FFF7BBFD4FF0FF304EE63046A0
S31500009C4000F089FF20B9FFF7B2FD4FF0FF3045E67F
S31500009C50B002AD4900F0B0FF20B9FFF7A8FD4FF004
S31500009C60FF303BE6761C02988642D9D30120FFF7E7
S31500009C7032FD4FF0FF3031E64FF0010A083C01207B
S31500009C80A449087060E0285D612802DB285D7A2817
S31500009C9005DD285D412851DB285D5A284EDC601C15
S31500009CA0285C612803DB601C285C7A280BDD601CBD
S31500009CB0285C412803DB601C285C5A2803DD601CF5
S31500009CC0285C20283AD1A01C285C612803DBA01C54
S31500009CD0285C7A280BDDA01C285C412803DBA01C2D
S31500009CE0285C5A2803DDA01C285C202826D1A4F174
S31500009CF00800285C612804DBA4F10800285C7A28A7
S31500009D0009DDA4F10800285C412817DBA4F108004E
S31500009D10285C5A2812DCA4F10800285C2E280DD0F5
S31500009D20A4F10800285C5F2808D001207349087058
S31500009D300020FFF7D0FC4FF0FF30CFE5203400BF06
S31500009D40761C4645FFF4E5AD00BF009848B166486D
S31500009D500068644909680844634908600020FFF701
S31500009D6087FCBAF1010F01D12046B7E54FF0FF306D
S31500009D70B4E52DE9F04104460D46164666480078DE
S31500009D80022802D15F48007808B9BDE8F08163482F
S31500009D900068002853D0002000F0C6FC4FF4007184
S31500009DA0284605F08EFC072C36D25D4800EBC40031
S31500009DB042685B4850F83410284605F069FC012CCF
S31500009DC007D15848007820B9FF20A8710F20E87104
S31500009DD022E0032C20D153480078E8B9504901EB22
S31500009DE0C4014968481920224F4905F051FC4F49E2
S31500009DF0424A127851F8220005F06EFCC1B248487A
S31500009E0000EBC40040681C3029540421444800EB90
S31500009E10C40040681A302954072C10D14349374AE8
S31500009E20127851F8220005F057FC07463F48334A9E
S31500009E30127850F822103A46284605F029FC00BF51
S31500009E40A3E710B52E48007810F0010F1ED12E4959
S31500009E502E48006800F0B0FE38B92C48006800F5BE
S31500009E6080602A490860012010BD254800681D4908
S31500009E700968884204D10120FFF72DFC0020F3E792
S31500009E802248006800F58060204908601C48006888
S31500009E9014490968884211D11948007810F0010F59
S31500009EA007D019491948006800F086FE08B9012054
S31500009EB0DAE70120FFF70FFC0020D5E70020D3E703
S31500009EC02DE9F04104460D46174600261248007853
S31500009ED0022802D10B48007808B9BDE8F08127E0D6
S31500009EE080E0FF1F84E0FF1F5CE0FF1FA8E0FF1F6C
S31500009EF0A2E0FF1FA3E0FF1F9CE0FF1F62E0FF1F21
S31500009F0088E0FF1F60E0FF1F280C002094E0FF1F81
S31500009F1050000020A1E0FF1FCCE0FF1F84000020BE
S31500009F2024E0FF1F61E0FF1FEB0D010064E0FF1F4F
S31500009F30032C01D0042C3FD1E1B22846FFF79BFC4D
S31500009F400646701C38D08B48007810B901208A4923
S31500009F50087088480078012817D188480068884921
S31500009F600968884211D18748006801280DD18648C2
S31500009F70007840B9012084490870844801684FF48C
S31500009F80805006F053F8BDE8F0817A480078012841
S31500009F9012D17F4800687F49096888420CD177480A
S31500009FA0006877490968884206D97648006801281A
S31500009FB002D1FFF790FBE6E7042C75D900F0BEFB53
S31500009FC06D48007810B901206A4908707248006827
S31500009FD040B171480068401CA04203D001206F497F
S31500009FE00870D0E76E48007828B96E480068844249
S31500009FF001D96C480460FFF7E1FB012800D1C2E7F4
S3150000A0006048006801284FD100F08EFB6348007855
S3150000A01060B164480068844208D100F0B5FD00B91B
S3150000A020B1E700205D4908705F4908705D48006827
S3150000A030A04200D9A7E75A48007870B95948006885
S3150000A040A0420AD1012056490870504801684FF4D1
S3150000A050005005F0EBFF4E4804605148007850B9B7
S3150000A06050480068A04206D00520504908700020DC
S3150000A070FFF731FB87E74A480078012815D14748A2
S3150000A080007890B942480068A0420ED04048006867
S3150000A0903A4909680844A04207D00220434908709B
S3150000A0A00020FFF718FB6EE739E0374800780128F3
S3150000A0B002D10020344908703948007860B1394827
S3150000A0C00068844208D100F05FFD00B95BE700201C
S3150000A0D032490870344908702F48046027480068E0
S3150000A0E0401C264908600846007810F0010F01D090
S3150000A0F02F4800E02F4830490860FFF7A2FE0128EC
S3150000A1000DD12E48007830B104202849087000206F
S3150000A110FFF7E1FA37E701202349087033E700BF6C
S3150000A12031E72748007858B90120254908700023EF
S3150000A130244A49F20561AFF63D20DFF88CC000DF06
S3150000A1404FF480202149086040122149086001200F
S3150000A150204908601D4800681D490968B0FBF1F0F8
S3150000A1601D49086013481449086001201B4908600E
S3150000A170704700008CE0FF1F8DE0FF1F88E0FF1F87
S3150000A18084E0FF1F90E0FF1FA0E0FF1FB0E0FF1F6D
S3150000A1909CE0FF1FA8E0FF1FA4E0FF1FA3E0FF1F36
S3150000A1A099E0FF1F5CE0FF1FA2E0FF1F62E0FF1FB8
S3150000A1B0280E0020280C0020A0000020A1E0FF1F90
S3150000A1C0ACE0FF1F28100020D108010090000020FD
S3150000A1D094000020980000209C00002084000020AD
S3150000A1E010B5B04B03EB10131B780B7000F00F0388
S3150000A1F0AC4CE35C137010BD70B503460020002420
S3150000A2001DE01E78302E04DB1E78392E01DC302549
S3150000A2100EE01E78412E04DB1E78462E01DC372523
S3150000A22006E01E78612E03DB1E78662E00DC5725BD
S3150000A2301E7800FB0266701B5B1C661CF4B28C4227
S3150000A240DFDB70BD70B50025242097490870487083
S3150000A25088701820C8702D1D00240AE093480068F5
S3150000A2603030025D2946681CC5B28F484254601CD6
S3150000A270C4B2042CF2DB002409E08D480068025DBC
S3150000A2802846691CCDB288490A54601CC4B2042C05
S3150000A290F3DB002414E0022313FB04535B1C824E01
S3150000A2A09A19022313FB04539919C4F10303DE0020
S3150000A2B0804B1B68F340D8B2FFF792FF601CC4B214
S3150000A2C0042CE8DB05F10800C5B2002414E00223E3
S3150000A2D013FB04535B1C744E9A19022313FB04539D
S3150000A2E09919C4F10303DE00734B1B68F340D8B21F
S3150000A2F0FFF776FF601CC4B2042CE8DB05F108000A
S3150000A300C5B200206849485570BD70B5002666483C
S3150000A310001D05F0E1F9C5B2022000EB45006749D2
S3150000A320087003204870B61C002416E0204604EB93
S3150000A330D0714910B4EB410109D104EBD071491039
S3150000A340091D594A515C32195C4B995403E00020AF
S3150000A35031195A4A5054601CC4B2B4EB450FE5DBC0
S3150000A36006EB4500C6B200205449885570BD4E48DC
S3150000A370704710B54C48001D05F0AEF9022101EBFF
S3150000A3804000C0B210BD4D48704770B51022042180
S3150000A390464800683030FFF72FFF0446102204219C
S3150000A3A043480068FFF728FF054644EA054042494E
S3150000A3B00860084600683F49096848403E49086009
S3150000A3C010220821394800683430FFF715FF064689
S3150000A3D03948006870403849086070BD0022426004
S3150000A3E00160704730B50146002000BF01234C686C
S3150000A3F02CB1334C246824780CB900244C604C688A
S3150000A400F4B90D686C1C0C602878402818D10C68CB
S3150000A4102278412A06D1244C241D294D2C60012482
S3150000A4204C6000E000BF00BF4C684CB10C68641C77
S3150000A4300C60234C2468247814B900244C60002353
S3150000A4404C683CB11E4C246820781D4C2468641C62
S3150000A4501B4D2C60002BC9D030BD7CB5002519489A
S3150000A460007858B9134800F023F9FFF78EFFFFF77D
S3150000A470E9FEFFF74AFF01201249087012496846B3
S3150000A480FFF7ACFF002500BF6846FFF7ABFF0446A9
S3150000A49024B105F500700D490C546D1C002CF3D148
S3150000A4A001207CBD78100100B8100020500000206B
S3150000A4B0300000203C00002040000020D510002085
S3150000A4C038000020340000208C0F0100280C0020EA
S3150000A4D070B56948806B40F4805067498863881579
S3150000A4E0664908611020664908606649C1F8D400CB
S3150000A4F00846D0F8C80040F01000C1F8C8005E4811
S3150000A500806B40F480505C4988634FF488605B49F7
S3150000A51088615948C06B40F080705749C8635A48F3
S3150000A520406D40F00400584948650846406D20F0EB
S3150000A530010048650846D0F8800020F00100C1F807
S3150000A54080000846406E20F0806048660846406EEF
S3150000A55020F0807048660846006820F020000860F9
S3150000A5600846C06B40F020014748C163C06B40F00D
S3150000A57008014548C163C06B20F004014248C1632D
S3150000A5804FF00000404948604048006805F0ECF88C
S3150000A59005464FF08E4105F0A7F8044605F0E9F8A8
S3150000A5A0394988600020C8643848006805F0DCF83E
S3150000A5B006464FF08E4105F097F8054605F0D9F8A6
S3150000A5C0044600EBD47041102F48016408202E4940
S3150000A5D008600846406D20F00400486570BD38B13B
S3150000A5E02B49096841F01001264AC2F8C81006E056
S3150000A5F02849096841F01001224AC2F8C410704780
S3150000A6000020704730B50246234802602348018087
S3150000A6101948806B40F48050174B98632048406877
S3150000A62040F080701E4B58601E485860292000F08C
S3150000A6301F040123A3401C4C450944F8253000BFE4
S3150000A64000BF00F01F040123A34044094FF0E0259A
S3150000A65005EB8404C4F8003100BF30BD1348006820
S3150000A660022808D10E48406840F080700C494860C6
S3150000A67040F21310486070470080044000C0044058
S3150000A680C0F00F4000F00F400080034000000020A3
S3150000A690C8F00F40C4F00F40B8E0FF1FB4E0FF1F42
S3150000A6A000A0044013010A0080E200E0A0A00440DC
S3150000A6B00649096E054AD26D5140044A926D5140D1
S3150000A6C0024A526D5140016070470000008004400C
S3150000A6D000240320DFF858C300DF17E0DFF854C377
S3150000A6E000DFD54801680220DFF850C300DF2046AE
S3150000A6F0611CCCB2032190FBF1F201FB120028B9D8
S3150000A700CD4801680120DFF834C300DFE6E710B565
S3150000A710044614B10120CA490860C74801680420EC
S3150000A720DFF818C300DF10BD0121C64A116008B169
S3150000A730022100E00121C44A11707047BE48016839
S3150000A7401020DFF8F8C200DF7047BB4801684FF4FD
S3150000A7500070DFF8E8C200DF7047B7480168802064
S3150000A760DFF8D8C200DF7047B34801684FF4807045
S3150000A770DFF8C8C200DF704708E0B148006828B9B2
S3150000A78002F02CFF02F075FF02F05BFFF5E71CB547
S3150000A7904FF0000ADFF8B4C200DFA7490860FFF7F0
S3150000A7A097FE03F01DF800F06BF90120FFF717FF85
S3150000A7B00421A1480068FFF725FF4FF0010B002098
S3150000A7C003F019F80026B0460120A14908700225B9
S3150000A7D0002700209B490860FFF73FFE00239D4AA3
S3150000A7E044F20B61AFF21710DFF86CC200DF4FF0D6
S3150000A7F001099A4800684168032088470120FFF74D
S3150000A800EEFE04F0E5FE04F0F5FE02E100224FF64E
S3150000A810FF7140F2F730DFF848C200DFDFF844C2CC
S3150000A82000DF044614F4007F04D000260425062029
S3150000A8308749087014F0100F05D04FF00A0801265A
S3150000A84001208049086014F0200F02D004208049BE
S3150000A850087014F0040F2AD000207B490870FFF717
S3150000A860BEFEFEF711FC7648006890B17B48006892
S3150000A870416800208847FFF77AFD0190019804F0AF
S3150000A8802BFF01460090019802F0C3FE00206C49A0
S3150000A8900860724800684168022088474FF0010945
S3150000A8A0012069490870FFF79AFE4FF0000B14F07B
S3150000A8B0800F0ED004F0B7FE684800684168042097
S3150000A8C08847002002F097FF0020FFF788FE00BFB0
S3150000A8D0FEE714F4807F06D004F0A5FE5F4800680A
S3150000A8E041680420884714F0010F76D0BBF1000FB1
S3150000A8F006D1042150480068FFF784FE4FF0010B93
S3150000A900B9F1000F05D0B9F1030F03D14FF00009DB
S3150000A91001E000E000BF00BF6EB1012E0AD1B8F120
S3150000A920000F03D0A8F10100804600E0002000B926
S3150000A930002601E000BF00BF00BF45480078072899
S3150000A94047D2DFE800F0481C472946040C002EB920
S3150000A950002002F050FF00203D4908703CE06EB92F
S3150000A96015B1681E054600E0002038B9002002F047
S3150000A97042FF012036490870FFF76FFD2CE015B144
S3150000A980681E054600E0002028B9012002F033FFCA
S3150000A99003202F4908701FE002F046FFB8B1BAF154
S3150000A9A0000F11D10023304A30493148DFF8A8C0E2
S3150000A9B000DF00232F4A49F20161AFF24320DFF89E
S3150000A9C098C000DF4FF0010A02202149087003E019
S3150000A9D003E000BF00BF00BF00BF14F0020F18D095
S3150000A9E018480068A8B118480078012803D016480E
S3150000A9F0007802280DD10FB1002707E00127124881
S3150000AA000078012802D100200E4908603846FFF779
S3150000AA10E6FDFBE610B5FDF703FD174A4BF20A41CA
S3150000AA20AFF29520DFF854C000DF002010BD000013
S3150000AA30650301007D030100C4E0FF1FE901010079
S3150000AA40BCE0FF1FC8E0FF1FC0E0FF1F6509010053
S3150000AA50CCE0FF1F10110020D1080100500000209B
S3150000AA604902010091010100501100200F5E010012
S3150000AA7013960000A812002038130020F1060100EA
S3150000AA8010B501F03DFC00BF20206E4908604FF074
S3150000AA9040006D49C1F884004FF0010088644FF012
S3150000AAA0100088604FF0020048640846406940F094
S3150000AAB0100048610846806840F01000886008462B
S3150000AAC0806C40F0010088644FF00200486408463C
S3150000AAD0406D40F00200486540F213105B49486043
S3150000AAE000BF4FF0010010BD20B10021584A11608F
S3150000AAF000BF04E00121564A116000BF00BF704745
S3150000AB001CB5544C2468E469A26B524C2468E46971
S3150000AB10E16B504C2468E469606B4E4C24686369B1
S3150000AB20984708B900201CBD00200090494A0190B2
S3150000AB301268D2691168474A1268D26902F1200088
S3150000AB40444A1268002394691A46A04708B90020AF
S3150000AB50E9E70120E7E77CB5044600200090A20261
S3150000AB603C4B01901B68DB6959693A4B1B68DB69F2
S3150000AB7003F12000374B1B689D690023A84708B9DD
S3150000AB8000207CBD0120FCE71CB500200090314A66
S3150000AB9001901268D26911692E4A1268D26902F1CF
S3150000ABA020002C4A1268002394691A46A04708B967
S3150000ABB000201CBD0120FCE72DE9FC4105460C46A2
S3150000ABC00026B5F5806F13D100BF07E0A05DFF2812
S3150000ABD002D00020BDE8FC81701C86B20C2EF5DB8D
S3150000ABE0A07BFF2802D1E07BFF2801D00020F1E7FF
S3150000ABF018490968C969086B164909684FF48062E3
S3150000AC004B692146984708B90020E3E7002111481F
S3150000AC100068C069006B0F4ACDE900011268D2696D
S3150000AC2091690C4A1268D26902F12000094A126839
S3150000AC304FF4806397692A46B84708B90020C9E7E8
S3150000AC400120C7E784F00F4000F00F4000A0044049
S3150000AC500408FE43500000202020F84908604FF009
S3150000AC604000F749C1F884004FF0010088644FF0B6
S3150000AC70100088604FF0020048640846406940F0C2
S3150000AC80100048610846806840F010008860084659
S3150000AC90806C40F0010088644FF00200486408466A
S3150000ACA0406D40F00200486540F21310E5494860E7
S3150000ACB0704710B503460C4600210020014606E009
S3150000ACC0C80024FA00F05854481CC0B2014691420C
S3150000ACD0F6DB10BD2DE9F04106460F4600250BE0D8
S3150000ACE03946304602F0E7FA0446022C02D02046E6
S3150000ACF0BDE8F081681CC5B20A2DF1DB2046F7E7F6
S3150000AD00F8B504460D4604F00C0040F0020669460C
S3150000AD103046FFF7DFFF07469DF8030000069DF863
S3150000AD20021040EA01409DF8011040EA01209DF81A
S3150000AD30001008432860012F01D10120F8BD002032
S3150000AD40FCE7F8B504460D46082C08D1BE48006855
S3150000AD50A84201D10120F8BDBB48056000E000BF54
S3150000AD6000BF04F00C06042229466846FFF7A1FF3F
S3150000AD7069463046FFF7AEFF0746012F00D1EAE7E6
S3150000AD800020E8E72DE9F84304460E4604F07F4824
S3150000AD9004F0F00948EA09010820FFF7D2FF10B9CC
S3150000ADA00020BDE8F88304F00C0040F00307694674
S3150000ADB03846FFF78FFF69463846FFF78BFF054693
S3150000ADC09DF8030000069DF8021040EA01409DF838
S3150000ADD0011040EA01209DF8001008433060012D63
S3150000ADE001D10120DDE70020DBE72DE9F843044629
S3150000ADF00D4604F07F4804F0F00948EA09010820EE
S3150000AE00FFF79FFF10B90020BDE8F88344B98E48CC
S3150000AE104068A84201D10120F6E78B48456000E072
S3150000AE2000BF00BF04F00C0040F0010704222946D1
S3150000AE306846FFF73EFF69463846FFF74BFF012895
S3150000AE4001D00020E0E70E2700213846FFF742FF39
S3150000AE500646012E00D1D7E70020D5E72DE9F84FA9
S3150000AE6007468846144614B90020BDE8F88F4FEA15
S3150000AE70940A76490020FFF7B8FF08B90020F4E7E6
S3150000AE804FF00509042239466846FFF712FF694666
S3150000AE904846FFF71FFF012801D00020E5E74FF0E5
S3150000AEA00D0900250AE041464846FFF713FF012831
S3150000AEB001D00020D9E708F104086D1C5545F2D3EE
S3150000AEC04FF00E0900214846FFF704FF0646012E03
S3150000AED000D1CAE70020C8E72DE9F84F07468846A3
S3150000AEE0144614B90020BDE8F88F4FEA940A574972
S3150000AEF00020FFF77AFF08B90020F4E74FF00509B4
S3150000AF00042239466846FFF7D4FE69464846FFF7ED
S3150000AF10E1FE012801D00020E5E74FF00F09414688
S3150000AF204846FFF7D7FE012801D00020DBE70026C0
S3150000AF300AE041464846FFF7CDFE012801D0002031
S3150000AF40D1E708F10408761C5645F2D34FF00E09F6
S3150000AF5000214846FFF7BEFE0546012D00D1C2E797
S3150000AF600020C0E72DE9FC4105460E46042229468D
S3150000AF7001A8FFF79EFE052701A93846FFF7AAFE9E
S3150000AF80012802D00020BDE8FC810F27694638461B
S3150000AF90FFF7A0FE012801D00020F4E70E2769463E
S3150000AFA03846FFF797FE04469DF8030000069DF815
S3150000AFB0021040EA01409DF8011040EA01209DF888
S3150000AFC0001008433060012C01D10120DBE700208E
S3150000AFD0D9E7F8B505460E46042229466846FFF726
S3150000AFE068FE052769463846FFF774FE012801D03A
S3150000AFF00020F8BD042231466846FFF75AFE0D27A9
S3150000B00069463846FFF766FE012801D00020F0E7C2
S3150000B0100E2700213846FFF75DFE0446012C00D1BD
S3150000B020E7E70020E5E770B504460D46074900202E
S3150000B030FFF7DBFE60B9002070BD000084F00F4012
S3150000B04000F00F4000A004405400002052000023EE
S3150000B05029462046FFF786FF08B90020ECE70120C5
S3150000B060EAE770B504460D46FE490020FFF7BDFE2F
S3150000B07008B9002070BD29462046FFF7AAFF08B987
S3150000B0800020F7E70120F5E738B504460D46F549F7
S3150000B090891E0020FFF7A9FE08B9002038BD6946C1
S3150000B0A02046FFF75FFF08B90020F7E7A007C10EAB
S3150000B0B00098C84028700120F0E770B504460E4697
S3150000B0C0E849891E0020FFF790FE08B9002070BDF0
S3150000B0D0A007C00E06FA00F529462046FFF779FFBD
S3150000B0E008B90020F3E70120F1E72DE9F041054614
S3150000B0F00F4614460AE039462846FFF7C5FF10B941
S3150000B1000020BDE8F0816D1C7F1C641E14B115F093
S3150000B110030FF0D117E0D4480068816AD24800686E
S3150000B120806A401E28400E1AB44201D224F003065B
S3150000B130324639462846FFF7CFFE08B90020E0E739
S3150000B14035443744A41B032CE5D809E03946284684
S3150000B150FFF79AFF08B90020D3E76D1C7F1C641E19
S3150000B160002CF3D10120CCE72DE9F04105460E462F
S3150000B17014460AE031782846FFF79FFF10B90020F1
S3150000B180BDE8F0816D1C761C641E14B115F0030F2A
S3150000B190F0D117E0B4480068816AB3480068806A55
S3150000B1A0401E28400F1ABC4201D224F003073A463B
S3150000B1B031462846FFF752FE08B90020E0E73D4435
S3150000B1C03E44E41B032CE5D809E031782846FFF716
S3150000B1D074FF08B90020D3E76D1C761C641E002C92
S3150000B1E0F3D10120CCE773B50446002564269F48B9
S3150000B1F00199FFF736FF08B900207CBD44F4803181
S3150000B2009A48001FFFF72DFF08B90020F5E7002533
S3150000B2100EE001A995480838FFF705FF08B9002098
S3150000B220EBE7019810F4803F01D00120E5E76D1CA3
S3150000B230B542EEDB0020E0E738B5054600210820E0
S3150000B240FFF77FFD08B9002038BD002408E055F857
S3150000B25024102046FFF7C7FF08B90020F4E7641C56
S3150000B260042CF4D30920696AFFF7BDFF08B9002052
S3150000B270EAE70D2408E055F824102046FFF7B3FF4F
S3150000B28008B90020E0E7641C102CF4D31020296CC8
S3150000B290FFF7A9FF08B90020D6E7754973480838B3
S3150000B2A0FFF7DFFE08B90020CEE769460420FFF766
S3150000B2B027FD08B90020C7E7009810F0A00F01D0BD
S3150000B2C00020C1E70120BFE72DE9F04105460E4603
S3150000B2D00024642729466548001FFFF7C2FE10B9FF
S3150000B2E00020BDE8F08100240DE031465F480838B3
S3150000B2F0FFF799FE08B90020F3E7306810F4803FA5
S3150000B30000D002E0641CBC42EFDB00BFBC4201D1AE
S3150000B3100020E6E731465548FFF785FE08B90020CC
S3150000B320DFE70120DDE73EB5044600210820FFF7F0
S3150000B33008FD08B900203EBD01A90020FFF7C4FFA3
S3150000B34008B90020F7E79DF8070000069DF80610EB
S3150000B35040EA01409DF8051040EA01209DF80410DE
S3150000B3600843206069460420FFF7CAFC08B900209C
S3150000B370E1E7009810F0A00F01D00020DBE70120E4
S3150000B380D9E738B504460D46694638480838FFF708
S3150000B3904AFE08B9002038BD009810F4003F01D1DC
S3150000B3A00020F8E721460020FFF78EFF08B90020AD
S3150000B3B0F1E729460120FFF787FF08B90020EAE7F1
S3150000B3C00120E8E738B542F2107500240EE0694620
S3150000B3D026480838FFF727FE08B9002038BD009830
S3150000B3E010F4003F01D00120F8E7641CAC42EED314
S3150000B3F00020F3E738B5044621460020FFF7F3FEA8
S3150000B40008B9002038BD69460F20FFF75DFF08B96F
S3150000B4100020F7E70099891C0F20FFF7E4FE08B922
S3150000B4200020EFE7124911480838FFF71AFE08B95D
S3150000B4300020E7E70120E5E72DE9F04391B0044657
S3150000B4400D4616461F46DDE918894FF080701090AC
S3150000B45000960197CDF80880CDF80C900020049056
S3150000B460059007E05200002350000020F8ED00E0B0
S3150000B47001005FA0069007900890A0680990002040
S3150000B4800A900B900C90E0680D9060680E900F95F6
S3150000B4906846FFF7D1FE18B9002011B0BDE8F08369
S3150000B4A0FFF790FF08B90020F7E76846FFF73BFF74
S3150000B4B008B90020F1E7009808B10020EDE7012067
S3150000B4C0EBE71CB5002400BF04E0FF200DF80400E4
S3150000B4D0601CC4B2082CF8DB6946332000F09CFFE0
S3150000B4E001201CBD38B50446E0B28DF80000200AE4
S3150000B4F08DF801006946102000F08EFF012038BD4E
S3150000B5001CB504460020019001A9082000F084FF24
S3150000B51069460020FFF7F4FB012801D000201CBD7E
S3150000B5209DF8030000069DF8021040EA01409DF8D0
S3150000B530011040EA01209DF8001008432060012018
S3150000B540EDE710B5C649C748FFF78BFD08B90020DF
S3150000B55010BD0120FCE708B56946C348FFF712FC99
S3150000B56008B9002008BD0098A0F5E011203901D0E7
S3150000B5700020F7E76946BC48F838FFF703FC08B92E
S3150000B5800020EFE769464FF08070FFF7FBFB08B934
S3150000B5900020E7E7009810F0040F3AD0B34800689F
S3150000B5A041680020884714E00121AF48F838FFF7CA
S3150000B5B01CFC08B90020D5E769464FF08070FFF7FC
S3150000B5C0E1FB08B90020CDE7009810F0010F00D08C
S3150000B5D000E0E9E700BF1AE00021A348F838FFF7CA
S3150000B5E004FC08B90020BDE769464FF08070FFF7FC
S3150000B5F0C9FB08B90020B5E769469B48F838FFF74C
S3150000B600C1FB08B90020ADE7009800B900E0E3E708
S3150000B61000BF0120A6E708B500200090FFF751FF04
S3150000B62008B9002008BD4EF29E70FFF75BFF08B90F
S3150000B6300020F7E7FFF745FF08B90020F2E7684664
S3150000B640FFF75EFF08B90020ECE70120EAE708B53E
S3150000B65000200090401E86490860486000F050FEB9
S3150000B660FFF7FAFA0120FFF73FFAFFF7D4FF08B910
S3150000B670002008BD1E210020FFF763FB08B900204B
S3150000B680F7E700210820FFF75CFB08B90020F0E788
S3150000B6904FF0A0410420FFF754FB08B90020E8E76B
S3150000B6A000BF69460420FFF72BFB08B90020E0E73E
S3150000B6B0009800F02040B0F1204FF2D16D490420EF
S3150000B6C0FFF73FFB08B90020D3E7FFF744FF00214F
S3150000B6D00820FFF736FB08B90020CAE70120C8E7B3
S3150000B6E038B50446062C7AD2DFE804F00340071684
S3150000B6F0878D0120FFF7F8F9AFE00120FFF7F4F995
S3150000B7000220DFF874C100DF0020FFF7EDF9022008
S3150000B710DFF864C100DFA0E00120FFF7E5F90120B2
S3150000B720DFF854C100DF0020FFF7DEF90120DFF863
S3150000B73048C100DFFFF78BFF08B9002038BD484934
S3150000B740491C4848FFF78DFC08B90020F6E70120A0
S3150000B750FFF7CAF90120DFF820C100DF0020FFF75C
S3150000B760C3F90120DFF810C100DF76E00120FFF702
S3150000B770BBF90220DFF800C100DF0020FFF7B4F9B3
S3150000B7800220DFF8F4C000DFFFF761FF08B90020F0
S3150000B790D4E73349491C3348FFF763FC08B9002056
S3150000B7A0CCE701212F480C30FFF75BFC08B90020DD
S3150000B7B0C4E70120FFF798F90220DFF8BCC000DFDC
S3150000B7C00020FFF791F90220DFF8ACC000DF00BFD0
S3150000B7D069462448FFF727FC10B90020AEE73AE097
S3150000B7E0009810F4003FF3D000211E480C30FFF7FC
S3150000B7F038FC08B90020A1E72FE0FFF7A2FE08B940
S3150000B80000209BE729E000F07BFDFFF725FAFFF714
S3150000B81002FF08B9002091E71E210020FFF791FAE8
S3150000B82008B900208AE700210820FFF78AFA08B93C
S3150000B830002083E74FF0A0410420FFF782FA08B901
S3150000B84000207BE70649491C0648FFF70AFC08B9B1
S3150000B850002073E701E0002070E700BF01206DE7DC
S3150000B86000005FA0F0ED00E0FC00000150000020A9
S3150000B87054000020000F00508901010002460020FC
S3150000B880052A1AD008DC012A0FD0022A0ED0032A74
S3150000B8900DD0042A21D10BE0062A0FD0F02A0ED0B3
S3150000B8A0FE2A16D0FF2A18D10DE016E015E014E0A6
S3150000B8B0F74B1B680B6004200FE00EE00DE0012340
S3150000B8C00B70012009E040230B7000234B7002200F
S3150000B8D003E005230B70012000BF00BF70474FF443
S3150000B8E07A51484301460A4600BF00BF531E1A005C
S3150000B8F0FCD100BF704730B502460B46107854782D
S3150000B90040EA042109010846044600BF00BF651E3F
S3150000B9102C00FCD100BF00201870012030BD10B5EE
S3150000B9200246107810B101280DD107E0537803F0D4
S3150000B9300100C343D74C236000BF08E0537803F0EF
S3150000B940010000BF03E0FF200870012010BD00BF0A
S3150000B950002008700120F9E770B506460D463078DC
S3150000B96008B9012400E0347803F05DFE012C31D1E2
S3150000B9700120C949087000BF2020C84908604FF05F
S3150000B9804000C749C1F884004FF0010088644FF0B9
S3150000B990100088604FF0020048640846406940F095
S3150000B9A0100048610846806840F01000886008462C
S3150000B9B0806C40F0010088644FF00200486408463D
S3150000B9C0406D40F00200486540F21310B5494860EA
S3150000B9D000BF03E000202870012070BD00BF2C705E
S3150000B9E00120FAE710B504460020AB49087000BFF5
S3150000B9F00120AB494864102048600220486408468C
S3150000BA00806C40F02000A8490860A648406840F0D5
S3150000BA108070A4494860A548486000BF03F0EAFD6D
S3150000BA2000202070012010BD014600BF0020487094
S3150000BA3008700220704770B503460D4619785A788B
S3150000BA409878DE7840EA06201E7940EA06405E795C
S3150000BA5040EA066412F0010F0ED011F0010F05D076
S3150000BA6000BF20208D4E306000BF05E000BF2020C3
S3150000BA708D4E306000BF00BF12F0020F0ED011F0E5
S3150000BA80020F05D000BF4020844E306000BF05E0A5
S3150000BA9000BF4020844E306000BF00BF12F0040F8C
S3150000BAA002D0880800BF00BF12F0200F02D048095C
S3150000BAB000BF00BF12F0800F04D0C8097C4E306072
S3150000BAC000BF00BF002C57D07A48844200D90446F4
S3150000BAD000BF00204FF0E026B06177486043774E04
S3150000BAE0B0FBF6F04FF0E02670610520306100BF34
S3150000BAF000BF12F0010F04D000BF0020484000D064
S3150000BB002AE012F0020F08D000BF6D480068C0F3AB
S3150000BB10C01090EA510000D01EE012F0040F05D0CC
S3150000BB2000BF002090EA910000D015E012F0200F2F
S3150000BB3005D000BF002090EA511000D00CE012F0B2
S3150000BB40800F08D000BF5648006DC0F3400090EA51
S3150000BB50D11000D000E007E000BF4FF0E020006900
S3150000BB60C0F300400028C4D000BF00BF00204FF043
S3150000BB70E026306100BF00BF00BF002600BF50486E
S3150000BB800068C0F3C01046EA400000BF40EA8600E5
S3150000BB9000BF40EAC60000BF40EA46164048006DB6
S3150000BBA0C0F3400046EAC01129704FF0010070BD95
S3150000BBB030B502460C461078557840EA052095784F
S3150000BBC040EA0540D57840EA05631BB9FF2020709E
S3150000BBD0012030BD3B48834204D301202E4D6870BE
S3150000BBE0686012E000202C4D6870581E364D2844BF
S3150000BBF0B0FBF3F1022905D9891E881C0325B0FB89
S3150000BC00F5F100E001212448416000202070012068
S3150000BC10DFE770B504460D4614F8016B0EB94FF414
S3150000BC2080762146304600F0F7FB00202870012080
S3150000BC3070BD10B50246137803F00300401C164C85
S3150000BC402075C3F380041448447500200870012051
S3150000BC5010BD38B504460D460F480078012803D0BC
S3150000BC60FF202870012038BD6078A17840EA0120C5
S3150000BC70E17840EA0140217940EA01600090694696
S3150000BC80002001F018FB002028700120EBE70000DF
S3150000BC90FC1601001018FE4368F4FF1F84F00F40E5
S3150000BCA000F00F4000A0044088F00F4013010A0086
S3150000BCB00408FE43C0C62D00006CDC0240420F00A3
S3150000BCC090F00F40001BB70000366E010246107858
S3150000BCD0FE4B18725078937840EA0323FB48438161
S3150000BCE0D078137940EA0323F8488381002008704E
S3150000BCF0012070472DE9F04F85B006460C4600201E
S3150000BD0003900025A146A41CF149087082460290C2
S3150000BD10761C16F8010B04903AE116F8018B18F020
S3150000BD20020F7CD0BAF1000F3AD0E848478908F0F4
S3150000BD301100012810D100BF6946404601F0BBFA48
S3150000BD400546022D1AD13800A7F1010716D0E048A2
S3150000BD5000780028F0D011E000BF69460E2001F0FF
S3150000BD60AAFA0546022D07D13800A7F1010703D02C
S3150000BD70D74800780028F0D04FF0000A012D00D0F7
S3150000BD800CE1009804F8010B0098000A04F8010B76
S3150000BD900098000C04F8010B0098000E04F8010B43
S3150000BDA018F0100F56D03078717840EA0120B1783B
S3150000BDB040EA0140F17840EA016B361DC3488089AC
S3150000BDC0019018F0010F14D0C048478900BF002128
S3150000BDD0404601F070FA0546022D07D13800A7F15A
S3150000BDE0010703D0BA4800780028F0D0012D00D012
S3150000BDF0D4E000BFB548478900BF6946404601F018
S3150000BE005AFA0546022D07D13800A7F1010703D0DB
S3150000BE10AF4800780028F0D0012D01D00EE05CE09C
S3150000BE20AA48006900990840584507D00198411E64
S3150000BE30019118B1A64800780028DBD000BFA348BE
S3150000BE40006900990840584501D045F01005012DBC
S3150000BE5040D0A3E09D48478918F0010F18D0BAF1E9
S3150000BE60000F37D100BF0021404601F024FA0546F5
S3150000BE70022D07D13800A7F1010703D094480078B6
S3150000BE800028F0D0012D00D088E04FF0010A21E013
S3150000BE9000BF6946404601F00EFA0546022D07D15D
S3150000BEA03800A7F1010703D0894800780028F0D0B0
S3150000BEB0012D00D072E0009804F8010B0098000AEA
S3150000BEC004F8010B0098000C04F8010B0098000E12
S3150000BED004F8010B0020029053E0BAF1000F25D0C0
S3150000BEE07A48478900BF69460E2001F0E4F9054605
S3150000BEF0022D07D13800A7F1010703D07448007856
S3150000BF000028F0D0012D00D048E0009804F8010B7D
S3150000BF100098000A04F8010B0098000C04F8010BC5
S3150000BF200098000E04F8010B4FF0000A3078717883
S3150000BF3040EA0120B17840EA0140F17840EA016028
S3150000BF400090361D18F0200F04D06048009901615A
S3150000BF50012516E05D48478900BF6946404601F065
S3150000BF60AAF90546022D07D13800A7F1010703D02B
S3150000BF70574800780028F0D0012D00D00EE00120AF
S3150000BF8002900398401C03905148007800B105E0E8
S3150000BF900498411E049100287FF4BFAE00BF012D16
S3150000BFA03BD1BAF1000F24D04848478900BF694603
S3150000BFB00E2001F080F90546022D07D13800A7F1C1
S3150000BFC0010703D0424800780028F0D0012D00D0A8
S3150000BFD024E0009804F8010B0098000A04F8010B0D
S3150000BFE00098000C04F8010B0098000E04F8010BF1
S3150000BFF013E0029888B13548478900BF00210E201A
S3150000C00001F059F90546022D07D13800A7F10107BD
S3150000C01003D02F4800780028F0D000BF039889F895
S3150000C020000089F80150A4EB090005B0BDE8F08FC7
S3150000C0302DE9F84F04460D464FF0000B0026A846A2
S3150000C040ED1C002022490870641C2078617840EAC3
S3150000C050012AA41CBAF1000F00D199E014F8017B63
S3150000C06017F0020F54D017F0010F16D01748B0F88A
S3150000C0700A9000BF0021384601F01DF90646022E3F
S3150000C08008D15FEA0900A9F1010903D01048007838
S3150000C0900028EFD0012E00D07AE033E0BAF1000F8D
S3150000C0A003D117F0010F00D00E270848B0F80A9008
S3150000C0B000BF6946384601F0FEF80646022E0DD14D
S3150000C0C05FEA0900A9F1010908D003E068F4FF1F3F
S3150000C0D0CDE0FF1FC54800780028EAD0012E00D029
S3150000C0E056E0009805F8010B0098000A05F8010BC8
S3150000C0F00098000C05F8010B0098000E05F8010BDE
S3150000C1000BF1010B5FEA0A00AAF1010AC6D13EE073
S3150000C11024E02078617840EA0120A17840EA0140D5
S3150000C120E17840EA01600090241DB148B0F80A9019
S3150000C13000BF6946384601F0BEF80646022E08D111
S3150000C1405FEA0900A9F1010903D0A8480078002890
S3150000C150EFD0012E00D01BE00BF1010B5FEA0A00C5
S3150000C160AAF1010AD5D1A248B0F80A9000BF002171
S3150000C1700E2001F0A0F80646022E08D15FEA09005B
S3150000C180A9F1010903D0994800780028EFD000BF33
S3150000C19088F800B04FEA1B2088F8010088F8026092
S3150000C1A0A5EB0800BDE8F88F0246FF2008700120C5
S3150000C1B0704770B506460D463078802807DB307824
S3150000C1C09F2804DC29463046FCF7D6FF70BD307840
S3150000C1D005F8010B16F8010B172870D2DFE800F0FE
S3150000C1E00C141A204E54658878252B8888888888F0
S3150000C1F030363C4248494A003078691CFFF73EFB1E
S3150000C20004462C70A01CE1E729463046FFF787FB61
S3150000C210044672E029463046FFF79EFB04466CE072
S3150000C2202846FFF7DFFB044667E029463046FFF75E
S3150000C23062FB044661E02846FFF7F6FB04465CE035
S3150000C24029463046FFF7F7FB044656E029463046B6
S3150000C250FFF7AEFC044650E029463046FFF7D9FC0E
S3150000C26004464AE029463046FFF7E3FC044644E02C
S3150000C27000BF00BFFF2028700220A7E729463046EE
S3150000C280FFF724FD044638E059480078012805D117
S3150000C29029463046FFF72EFD044604E000202870AC
S3150000C2A06870022400BF00BF27E0514800780128CB
S3150000C2B006D129463046FFF7BBFE044606E017E0E6
S3150000C2C0002028706870A870032400BF00BF14E027
S3150000C2D047480078012805D129463046FFF7B9FCC2
S3150000C2E0044603E0FF20287002206FE700BF04E049
S3150000C2F0FF2005F8010C012068E700BF601C65E718
S3150000C30010B500203A490870022048606421384878
S3150000C310418101203649087500F001F810BD354805
S3150000C320806B40F4F0503349886388153249486180
S3150000C3302020324908603248D0F8940040F02000AE
S3150000C340304908604FF480702B4988614FF04000F7
S3150000C3502B49C1F884000846D0F8940040F040000C
S3150000C3602849086040F203102349C8612448D0F8E0
S3150000C370940020F08000234908604FF48070224921
S3150000C38008604FF001001E4948640846406D40F0C1
S3150000C390010048654FF480701C4908614FF0100099
S3150000C3A0174948600846406940F01000486140F26D
S3150000C3B02310154948604FF00200114948640846A9
S3150000C3C0406D40F0020048654FF4907010490861D6
S3150000C3D04FF010000A49C1F8C4000846D0F8D4004E
S3150000C3E040F010000B49086070470000CDE0FF1FC9
S3150000C3F068F4FF1F0080044000B0044084F00F4042
S3150000C40000F00F4094F00F4000A00440009004405C
S3150000C41000C00440D4F00F4070B50022002333E082
S3150000C42013B911F8012B082312F0010F05D000BF34
S3150000C4304024FE4D2C6000BF05E000BF4024FC4DAB
S3150000C4402C6000BF00BF00BF4FF02004F84D2C60E9
S3150000C45000BFF84D6C68254600BF00BFA5F1010678
S3150000C4603500FBD100BF00BF2024F04D2C6000BF7B
S3150000C470F04D6C68254600BF00BFA5F101063500EA
S3150000C480FBD100BF52085B1E0400A0F10100C7D11A
S3150000C49070BDF0B503460F4600240120DFF898C3AF
S3150000C4A0CCF8180000BF00BF2020DFF880C3ACF135
S3150000C4B0840CCCF8880000BF00BF00BF00BFCCF8DA
S3150000C4C0840000BF00BF00BF1A461346DA488361E6
S3150000C4D000BF00BF2020CCF8880000BF00BF00BF0F
S3150000C4E000BFCCF8840000BF00BF00BF14445A0848
S3150000C4F01046DFF844C3CCF8180000BF00BF202068
S3150000C500DFF828C3ACF1840CCCF8880000BF00BF6C
S3150000C51000BF00BFCCF8840000BF00BF00BF1444BA
S3150000C5209A081046DFF810C3CCF8180000BF00BF09
S3150000C5302020DFF8F8C2ACF1840CCCF8880000BFEC
S3150000C54000BF00BF00BFCCF8840000BF00BF00BF23
S3150000C5501444DA081046DFF8E0C2CCF8180000BF31
S3150000C56000BF2020DFF8C4C2ACF1840CCCF88800F0
S3150000C57000BF00BF00BF00BFCCF8840000BF00BFF3
S3150000C58000BF14442046DFF8B0C2CCF8180000BF44
S3150000C59000BF2020DFF894C2ACF1840CCCF88800F0
S3150000C5A000BF00BF00BF00BFCCF8840000BF00BFC3
S3150000C5B000BF0020DFF880C2CCF8180000BF00BF23
S3150000C5C02020DFF868C2ACF1840CCCF8880000BFEC
S3150000C5D000BF00BF00BFCCF8840000BF00BF00BF93
S3150000C5E00120DFF854C2CCF8180000BF00BF20209D
S3150000C5F0DFF838C2ACF1840CCCF8880000BF00BF6D
S3150000C60000BF00BFCCF8840000BF00BF00BF00BF62
S3150000C6100120CCF8440000BF8648017D11E000BF30
S3150000C6202020DFF808C2ACF1840CCCF8880000BFEB
S3150000C63000BF00BF00BFCCF8840000BF00BF00BF32
S3150000C640491E0029EBD100BF2020DFF8E0C1ACF184
S3150000C650840CCCF8880000BF00BF00BF00BF77483D
S3150000C6600068024600BF4FF02000CCF8840000BFEF
S3150000C67000BF00BF164600BFCCF8880000BF00BF51
S3150000C68000BF00BF6C48D0F81C02024600BF4FF046
S3150000C6902000CCF8840000BF00BF00BF46EA420677
S3150000C6A000BFCCF8880000BF00BF00BF00BF6348D2
S3150000C6B00068024600BF4FF02000CCF8840000BF9F
S3150000C6C000BF00BF46EA8206012E7DD113F0020F9D
S3150000C6D05ED00025002420211DE000BF2020DFF8C9
S3150000C6E04CC1ACF1840CCCF8880000BF00BF00BF81
S3150000C6F000BF52480068024600BF4FF02000CCF849
S3150000C700840000BF00BF00BF14444FEA550545EA48
S3150000C710C275A1F101010029DFD100BF4FF0200051
S3150000C720DFF81CC1CCF8880000BF00BF00BF00BF07
S3150000C73042480068024600BF4FF02000CCF8840053
S3150000C74000BF00BF00BF84EA020010F0010F00D056
S3150000C750082607B13D603748017D0FE000BF202065
S3150000C760DFF8DCC0CCF8880000BF00BF00BF00BF08
S3150000C770CCF8840000BF00BF00BF491E0029EDD1E0
S3150000C78000BF0120DFF8B8C0CCF8480000BF5CE06D
S3150000C7902848017D0FE000BF2020DFF8A4C0CCF8B8
S3150000C7A0880000BF00BF00BF00BFCCF8840000BFF8
S3150000C7B000BF00BF491E0029EDD100BF0120DFF8F0
S3150000C7C080C0CCF8480000E063E000BF3D6800246C
S3150000C7D0202117E02846DFF860C0CCF8180000BF1B
S3150000C7E000BF2020DFF858C0CCF8880000BF00BF8B
S3150000C7F000BF00BFCCF8840000BF00BF00BF2C44C0
S3150000C8006D08491E0029E5D100BF0B48846100BFB1
S3150000C81000BF2020DFF828C0CCF8880000BF00BF8A
S3150000C82000BF00BFCCF8840000BF0BE084F00F40CF
S3150000C83088F00F4068F4FF1F0010FE431C12FE43F1
S3150000C84000F00F4000BF00BF00BFFE48017AC1B133
S3150000C8500020DFF8F4C3CCF8180000BF0FE000BFDB
S3150000C8602020DFF8E8C3CCF8880000BF00BF00BF77
S3150000C87000BFCCF8840000BF00BF00BF491E0029DE
S3150000C880EDD10120DFF8C0C3CCF8180000BFF0B22C
S3150000C890F0BD022E01D0042E5DD1EA48407DB0B134
S3150000C8A013F0020F13D021210FE000BF2020DFF884
S3150000C8B09CC3CCF8880000BF00BF00BF00BFCCF807
S3150000C8C0840000BF00BF00BF491E0029EDD1DD482E
S3150000C8D0017D0FE000BF2020DFF870C3CCF8880090
S3150000C8E000BF00BF00BF00BFCCF8840000BF00BF80
S3150000C8F000BF491E0029EDD100BF0120DFF84CC35F
S3150000C900CCF8480000BFCF48407DE0B113F0020FDD
S3150000C91019D10020DFF830C3CCF8180000BF212160
S3150000C9200FE000BF2020DFF824C3CCF8880000BF4A
S3150000C93000BF00BF00BFCCF8840000BF00BF00BF2F
S3150000C940491E0029EDD10120DFF8FCC2CCF8180001
S3150000C95000BFF0B29CE7BB48007D00F121010FE06B
S3150000C96000BF2020DFF8E4C2CCF8880000BF00BF7B
S3150000C97000BF00BFCCF8840000BF00BF00BF491E47
S3150000C9800029EDD10120DFF8C0C2CCF8180000BFA5
S3150000C990F0B27DE703B587B0002003900120019037
S3150000C9A0A9490198886100BF00BF2020A8490860F6
S3150000C9B000BFA448406801900198009000BF00BFE6
S3150000C9C00098401E0090FBD100BF00BF2020A14967
S3150000C9D0086000BF9B48406801900198009000BF26
S3150000C9E000BF0098401E0090FBD100BF079805903D
S3150000C9F00598019094490198886100BF00BF2021E5
S3150000CA009348016000BF8F484068019001980090EC
S3150000CA1000BF00BF0098401E0090FBD100BF00BFC2
S3150000CA2020208C49086000BF864840680190019824
S3150000CA30009000BF00BF0098401E0090FBD100BFD1
S3150000CA4005990398084403900798400805900598AF
S3150000CA5001907D490198886100BF00BF20207C4974
S3150000CA60086000BF7748406801900198009000BFB9
S3150000CA7000BF0098401E0090FBD100BF00BF2020E1
S3150000CA807449086000BF6F484068019001980090A3
S3150000CA9000BF00BF0098401E0090FBD100BF059963
S3150000CAA0039808440390079880080590059801901C
S3150000CAB065490198886100BF00BF2020644908606D
S3150000CAC000BF6048406801900198009000BF00BF19
S3150000CAD00098401E0090FBD100BF00BF20205D499A
S3150000CAE0086000BF5748406801900198009000BF59
S3150000CAF000BF0098401E0090FBD100BF0599039827
S3150000CB00084403900798C0080590059801904E497F
S3150000CB100198886100BF00BF20204D49086000BF12
S3150000CB204848406801900198009000BF00BF0098F7
S3150000CB30401E0090FBD100BF00BF20204549086081
S3150000CB4000BF4048406801900198009000BF00BFB8
S3150000CB500098401E0090FBD100BF05990398084439
S3150000CB6003900398019038490198886100BF00BF7F
S3150000CB7020203749086000BF32484068019001987C
S3150000CB80009000BF00BF0098401E0090FBD100BF80
S3150000CB9000BF20202F49086000BF2A484068019046
S3150000CBA00198009000BF00BF0098401E0090FBD186
S3150000CBB000BF019024490198886100BF00BF202072
S3150000CBC02349086000BF1F48406801900198009003
S3150000CBD000BF00BF0098401E0090FBD100BF00BF01
S3150000CBE020201C49086000BF164840680190019843
S3150000CBF0009000BF00BF0098401E0090FBD100BF10
S3150000CC000120019010490198886100BF00BF2020D3
S3150000CC100F49086000BF0B484068019001980090DA
S3150000CC2000BF00BF0098401E0090FBD100BF00BFB0
S3150000CC3020200849086000BF02484068019001981A
S3150000CC40009009E068F4FF1F0010FE4300F00F405B
S3150000CC5088F00F4084F00F4000BF00BF0098401ED0
S3150000CC600090FBD100BF00BF0120FE49486400BF11
S3150000CC70FD48007D029024E000BF2020FB490860AB
S3150000CC8000BFF948406801900198009000BF00BFBE
S3150000CC900098401E0090FBD100BF00BF2020F44941
S3150000CCA0086000BFF048406801900198009000BFFE
S3150000CCB000BF0098401E0090FBD100BF0298401EA6
S3150000CCC0029002980028D7D100BF2020E7490860CB
S3150000CCD000BFE548406801900198009000BF00BF82
S3150000CCE00098401E0090FBD100BF00BFE1480068DD
S3150000CCF0059000BF4FF02000DA49C1F8840000BF5C
S3150000CD00D948406801900198009000BF00BF009884
S3150000CD10401E0090FBD100BF0598069000BF202062
S3150000CD20D249086000BFD048406801900198009041
S3150000CD3000BF00BF0098401E0090FBD100BF00BF9F
S3150000CD40CC480068059000BF4FF02000C549C1F8E7
S3150000CD50840000BFC448406801900198009000BF5D
S3150000CD6000BF0098401E0090FBD100BFDDE9051012
S3150000CD7040EA4100069000BF2020BC49086000BF81
S3150000CD80B948406801900198009000BF00BF009824
S3150000CD90401E0090FBD100BF00BFB648006805905A
S3150000CDA000BF4FF02001AF48C0F8841000BFAE4866
S3150000CDB0406801900198009000BF00BF0098401E97
S3150000CDC00090FBD100BFDDE9051040EA8100069026
S3150000CDD0069801287CD1079810F0020F79D0002020
S3150000CDE0049003902020029036E000BF20209F4947
S3150000CDF0086000BF9C48406801900198009000BF01
S3150000CE0000BF0098401E0090FBD100BF00BF9948AC
S3150000CE100068059000BF4FF020009249C1F88400D9
S3150000CE2000BF9148406801900198009000BF00BF84
S3150000CE300098401E0090FBD100BF05990398084456
S3150000CE400390049840080490DDE9040140EAC170AB
S3150000CE5004900298401E029002980028C5D100BF97
S3150000CE6020208249086000BF7F48406801900198F1
S3150000CE70009000BF00BF0098401E0090FBD100BF8D
S3150000CE8000BF7C480068059000BF4FF02000754940
S3150000CE90C1F8840000BF7448406801900198009072
S3150000CEA000BF00BF0098401E0090FBD100BF05994F
S3150000CEB00398484010F0010F01D00820069008980A
S3150000CEC010B10899049808606748007D029026E032
S3150000CED00FE12DE000BF20206449086000BF6248D2
S3150000CEE0406801900198009000BF00BF0098401E66
S3150000CEF00090FBD100BF00BF20205D49086000BF45
S3150000CF005948406801900198009000BF00BF009802
S3150000CF10401E0090FBD100BF0298401E029002986E
S3150000CF200028D7D100BF01204E49886400BF95E094
S3150000CF304D48007D029024E000BF20204B49086048
S3150000CF4000BF4948406801900198009000BF00BFAB
S3150000CF500098401E0090FBD100BF00BF202144482E
S3150000CF60016000BF4048406801900198009000BFF2
S3150000CF7000BF0098401E0090FBD100BF0298401EE3
S3150000CF80029002980028D7D100BF0121354881645C
S3150000CF9000BF0898006804900020039020200290AB
S3150000CFA031E00498019034490198886100BF00BFC0
S3150000CFB020202E49086000BF2B4840680190019848
S3150000CFC0009000BF00BF0098401E0090FBD100BF3C
S3150000CFD000BF20202649086000BF23484068019012
S3150000CFE00198009000BF00BF0098401E0090FBD142
S3150000CFF000BFDDE90301084403900498400804904B
S3150000D0000298401E029002980028CAD10398019007
S3150000D01019490198886100BF00BF202013490860A4
S3150000D02000BF1148406801900198009000BF00BF02
S3150000D0300098401E0090FBD100BF00BF20210C4885
S3150000D040016000BF0848406801900198009000BF49
S3150000D05000BF0098401E0090FBD100BF0248007A36
S3150000D06002900BE000F00F4068F4FF1F88F00F40BD
S3150000D07084F00F401C12FE430010FE43029870B36A
S3150000D0800020019094490198886100BF24E000BF08
S3150000D09020209249086000BF91484068019001989D
S3150000D0A0009000BF00BF0098401E0090FBD100BF5B
S3150000D0B000BF20208B49086000BF89484068019066
S3150000D0C00198009000BF00BF0098401E0090FBD161
S3150000D0D000BF0298401E029002980028D7D1012076
S3150000D0E001907D490198886100BF0698C0B209B0D9
S3150000D0F000BD0698022802D00698042873D1784805
S3150000D100407D70B3079810F0020F2AD021200290BC
S3150000D11024E000BF20217148016000BF70484068CC
S3150000D12001900198009000BF00BF0098401E00903B
S3150000D130FBD100BF00BF20206A49086000BF6848D5
S3150000D140406801900198009000BF00BF0098401E03
S3150000D1500090FBD100BF0298401E02900298002862
S3150000D160D7D15F48007D029024E000BF20215B48B4
S3150000D170016000BF5A48406801900198009000BFC6
S3150000D18000BF0098401E0090FBD100BF00BF2020CA
S3150000D1905449086000BF52484068019001980090C9
S3150000D1A000BF00BF0098401E0090FBD100BF029850
S3150000D1B0401E029002980028D7D100BF012049499D
S3150000D1C08439886400BF4648407DA8B3079810F0AC
S3150000D1D0020F31D1002001903F490198886100BFBC
S3150000D1E02120029025E030E000BF20203B49086066
S3150000D1F000BF3B48406801900198009000BF00BF07
S3150000D2000098401E0090FBD100BF00BF202035498A
S3150000D210086000BF3248406801900198009000BF46
S3150000D22000BF0098401E0090FBD100BF0298401E30
S3150000D230029002980028D7D1012001902649019832
S3150000D240886100BF0698C0B251E72548007D2130AD
S3150000D250029024E000BF20202049086000BF20483B
S3150000D260406801900198009000BF00BF0098401EE2
S3150000D2700090FBD100BF00BF20201A49086000BF04
S3150000D2801748406801900198009000BF00BF0098C1
S3150000D290401E0090FBD100BF0298401E02900298EB
S3150000D2A00028D7D1012001900B490198886100BF61
S3150000D2B00698C0B21BE730B504460D4608484078CC
S3150000D2C020B129462046FFF7E4F830BD294620461E
S3150000D2D0FFF760FBF9E700000010FE4388F00F40FF
S3150000D2E068F4FF1F84F00F4070477047704702468E
S3150000D2F0002070470246002070477047704770470D
S3150000D300F0B502460B680C689C4201DD1C4600E045
S3150000D3100C68234618460DE0F94C2478641EF94D36
S3150000D3202E682D686D1CF74F34403D60F64D2C5D20
S3150000D33002F8014B1C00A3F10103EDD1F0BDF0B5DD
S3150000D34002460B461968084610E012F8016BEC4CD1
S3150000D3502478641EED4D2F682D686D1CDFF8ACC374
S3150000D3603C40CCF80050E84D2E55491E0029ECD122
S3150000D370F0BD0146E2480078401EE44A1268E14BDF
S3150000D3801B68D21A104008600020704708B50020BC
S3150000D390DF4908806846FBF7EEFEBDF8000010F492
S3150000D3A0004F05D0DA48008840F00100D8490880CF
S3150000D3B0BDF8000010F4005F05D0D548008840F0A5
S3150000D3C00200D3490880BDF8000010F0100F05D008
S3150000D3D0CF48008840F00400CD490880BDF8000021
S3150000D3E010F4804F05D0CA48008840F00800C849AC
S3150000D3F00880BDF8000010F0080F05D0C44800886A
S3150000D40040F01000C2490880BDF8000010F0040F7B
S3150000D41005D0BF48008840F02000BD490880BDF80F
S3150000D420000010F0020F05D0B948008840F0400017
S3150000D430B7490880B648008808BD10B5FBF706FD59
S3150000D440B44C23796279A1792068FBF72DFD012080
S3150000D450B1490880FFF79AFFAD4908800020AB4923
S3150000D4600860A849086010BD012070470120704778
S3150000D4700146012070470146012070470146012000
S3150000D480704710B5A5480078A449497840EA0120BC
S3150000D490A249897840EA0140A049C97840EA01607A
S3150000D4A09C4908609D48007908719C4840794871FC
S3150000D4B09A4880798871FBF7E3FCFBF7C7FC0120EB
S3150000D4C095490880934C23796279A1792068FBF706
S3150000D4D0EBFC012010BD8F480078904908708D48FC
S3150000D4E00088000A48708B480068000C88708948DC
S3150000D4F00068000EC8708748007908718548407931
S3150000D500487184488079887101207047014601205E
S3150000D510704710B504462046FBF796FD012010BD66
S3150000D52038B56846FBF7E5FD0020FDF7FDF86946CE
S3150000D5307B48FBF731FD0446002C08DD7949097864
S3150000D54041F0800022467649FBF758FB02E00120B5
S3150000D5507149088038BD10B50020FDF7E5F8684828
S3150000D5600078401E69490968664A1268891A0840A7
S3150000D57063490978081A6C490978884203D801205A
S3150000D5806A49088010BD6A496A480078FBF7A7FA1D
S3150000D590694908606648FFF7D2FE00BFF2E710B59A
S3150000D5A0A120664908702020487000208870C87045
S3150000D5B008714871022088710020C87154480078AB
S3150000D5C0087253480088000A48725D49097841F09C
S3150000D5D080000A225949FBF711FB10BD38B5684691
S3150000D5E0FBF787FD0098002812DD4B48008878B1CC
S3150000D5F069465448FBF7D0FC04460020464908809B
S3150000D6004849097841F0800022464E49FBF7F6FA70
S3150000D61038BD70B504460D4603E00220DFF828C188
S3150000D62000DF3D4800880028F7D000203A490880EE
S3150000D6303C49097841F080002A462146FBF7DEFA8C
S3150000D64070BD0EB56846FFF794FE009800280FDD02
S3150000D6500098202801DD202000E00098029002A911
S3150000D6603A48FFF74DFE019001A93848FBF717FD30
S3150000D6700EBD10B5FFF78AFE044635480088A04265
S3150000D68003D033480480FFF78AFF10BD10B5274842
S3150000D690008850B11B4800681C490968884204D1BB
S3150000D6A0002022490880FFF756FF10BD70B50546D9
S3150000D6B015F0080F0AD0FFF769FE044625480088D2
S3150000D6C0A04203D023480480FFF769FF70BD10B560
S3150000D6D00446FFF725FF10BD10B50446FFF73BFFD4
S3150000D6E010BD10B5044614F0040F02D02046FFF713
S3150000D6F0F3FF14F0080F02D02046FFF7E8FF10BD35
S3150000D700C4090100ECE0FF1F22090020E8E0FF1F2A
S3150000D710D8E0FF1FD0E0FF1FDAE0FF1F14E0FF1F75
S3150000D72062080020C1090100C3090100DCE0FF1FF7
S3150000D730A2080020C2090100E4E0FF1FA0F4FF1FB9
S3150000D740C0090100E20800208901010080F4FF1FE2
S3150000D750DEE0FF1FE0E0FF1F2048006858B100BF71
S3150000D7604FF6FF710846FBF711FEFBF70BFE04466A
S3150000D770FFF79CFFF4E71948006870B100BF4FF649
S3150000D780FF710846FBF702FEFBF7FCFD10F0080FE1
S3150000D790F5D00020FFF79BFFF1E71048006870B155
S3150000D7A000BF4FF6FF710846FBF7F0FDFBF7EAFDF9
S3150000D7B010F0040FF5D00020FFF78EFFF1E70748C1
S3150000D7C0006858B100BF4FF6FF710846FBF7DEFD53
